{
  "_format": "hh-sol-artifact-1",
  "contractName": "CryptoDevToken",
  "sourceName": "contracts/CryptoDevToken.sol",
  "abi": [
    {
      "inputs": [
        {
          "internalType": "address",
          "name": "_cryptoDevsContract",
          "type": "address"
        }
      ],
      "stateMutability": "nonpayable",
      "type": "constructor"
    },
    {
      "anonymous": false,
      "inputs": [
        {
          "indexed": true,
          "internalType": "address",
          "name": "owner",
          "type": "address"
        },
        {
          "indexed": true,
          "internalType": "address",
          "name": "spender",
          "type": "address"
        },
        {
          "indexed": false,
          "internalType": "uint256",
          "name": "value",
          "type": "uint256"
        }
      ],
      "name": "Approval",
      "type": "event"
    },
    {
      "anonymous": false,
      "inputs": [
        {
          "indexed": true,
          "internalType": "address",
          "name": "previousOwner",
          "type": "address"
        },
        {
          "indexed": true,
          "internalType": "address",
          "name": "newOwner",
          "type": "address"
        }
      ],
      "name": "OwnershipTransferred",
      "type": "event"
    },
    {
      "anonymous": false,
      "inputs": [
        {
          "indexed": true,
          "internalType": "address",
          "name": "from",
          "type": "address"
        },
        {
          "indexed": true,
          "internalType": "address",
          "name": "to",
          "type": "address"
        },
        {
          "indexed": false,
          "internalType": "uint256",
          "name": "value",
          "type": "uint256"
        }
      ],
      "name": "Transfer",
      "type": "event"
    },
    {
      "stateMutability": "payable",
      "type": "fallback"
    },
    {
      "inputs": [
        {
          "internalType": "address",
          "name": "owner",
          "type": "address"
        },
        {
          "internalType": "address",
          "name": "spender",
          "type": "address"
        }
      ],
      "name": "allowance",
      "outputs": [
        {
          "internalType": "uint256",
          "name": "",
          "type": "uint256"
        }
      ],
      "stateMutability": "view",
      "type": "function"
    },
    {
      "inputs": [
        {
          "internalType": "address",
          "name": "spender",
          "type": "address"
        },
        {
          "internalType": "uint256",
          "name": "amount",
          "type": "uint256"
        }
      ],
      "name": "approve",
      "outputs": [
        {
          "internalType": "bool",
          "name": "",
          "type": "bool"
        }
      ],
      "stateMutability": "nonpayable",
      "type": "function"
    },
    {
      "inputs": [
        {
          "internalType": "address",
          "name": "account",
          "type": "address"
        }
      ],
      "name": "balanceOf",
      "outputs": [
        {
          "internalType": "uint256",
          "name": "",
          "type": "uint256"
        }
      ],
      "stateMutability": "view",
      "type": "function"
    },
    {
      "inputs": [],
      "name": "claim",
      "outputs": [],
      "stateMutability": "nonpayable",
      "type": "function"
    },
    {
      "inputs": [],
      "name": "decimals",
      "outputs": [
        {
          "internalType": "uint8",
          "name": "",
          "type": "uint8"
        }
      ],
      "stateMutability": "view",
      "type": "function"
    },
    {
      "inputs": [
        {
          "internalType": "address",
          "name": "spender",
          "type": "address"
        },
        {
          "internalType": "uint256",
          "name": "subtractedValue",
          "type": "uint256"
        }
      ],
      "name": "decreaseAllowance",
      "outputs": [
        {
          "internalType": "bool",
          "name": "",
          "type": "bool"
        }
      ],
      "stateMutability": "nonpayable",
      "type": "function"
    },
    {
      "inputs": [
        {
          "internalType": "address",
          "name": "spender",
          "type": "address"
        },
        {
          "internalType": "uint256",
          "name": "addedValue",
          "type": "uint256"
        }
      ],
      "name": "increaseAllowance",
      "outputs": [
        {
          "internalType": "bool",
          "name": "",
          "type": "bool"
        }
      ],
      "stateMutability": "nonpayable",
      "type": "function"
    },
    {
      "inputs": [],
      "name": "maxTotalSupply",
      "outputs": [
        {
          "internalType": "uint256",
          "name": "",
          "type": "uint256"
        }
      ],
      "stateMutability": "view",
      "type": "function"
    },
    {
      "inputs": [
        {
          "internalType": "uint256",
          "name": "amount",
          "type": "uint256"
        }
      ],
      "name": "mint",
      "outputs": [],
      "stateMutability": "payable",
      "type": "function"
    },
    {
      "inputs": [],
      "name": "name",
      "outputs": [
        {
          "internalType": "string",
          "name": "",
          "type": "string"
        }
      ],
      "stateMutability": "view",
      "type": "function"
    },
    {
      "inputs": [],
      "name": "owner",
      "outputs": [
        {
          "internalType": "address",
          "name": "",
          "type": "address"
        }
      ],
      "stateMutability": "view",
      "type": "function"
    },
    {
      "inputs": [],
      "name": "renounceOwnership",
      "outputs": [],
      "stateMutability": "nonpayable",
      "type": "function"
    },
    {
      "inputs": [],
      "name": "symbol",
      "outputs": [
        {
          "internalType": "string",
          "name": "",
          "type": "string"
        }
      ],
      "stateMutability": "view",
      "type": "function"
    },
    {
      "inputs": [
        {
          "internalType": "uint256",
          "name": "",
          "type": "uint256"
        }
      ],
      "name": "tokenIdsClaimed",
      "outputs": [
        {
          "internalType": "bool",
          "name": "",
          "type": "bool"
        }
      ],
      "stateMutability": "view",
      "type": "function"
    },
    {
      "inputs": [],
      "name": "tokenPrice",
      "outputs": [
        {
          "internalType": "uint256",
          "name": "",
          "type": "uint256"
        }
      ],
      "stateMutability": "view",
      "type": "function"
    },
    {
      "inputs": [],
      "name": "tokensPerNFT",
      "outputs": [
        {
          "internalType": "uint256",
          "name": "",
          "type": "uint256"
        }
      ],
      "stateMutability": "view",
      "type": "function"
    },
    {
      "inputs": [],
      "name": "totalSupply",
      "outputs": [
        {
          "internalType": "uint256",
          "name": "",
          "type": "uint256"
        }
      ],
      "stateMutability": "view",
      "type": "function"
    },
    {
      "inputs": [
        {
          "internalType": "address",
          "name": "to",
          "type": "address"
        },
        {
          "internalType": "uint256",
          "name": "amount",
          "type": "uint256"
        }
      ],
      "name": "transfer",
      "outputs": [
        {
          "internalType": "bool",
          "name": "",
          "type": "bool"
        }
      ],
      "stateMutability": "nonpayable",
      "type": "function"
    },
    {
      "inputs": [
        {
          "internalType": "address",
          "name": "from",
          "type": "address"
        },
        {
          "internalType": "address",
          "name": "to",
          "type": "address"
        },
        {
          "internalType": "uint256",
          "name": "amount",
          "type": "uint256"
        }
      ],
      "name": "transferFrom",
      "outputs": [
        {
          "internalType": "bool",
          "name": "",
          "type": "bool"
        }
      ],
      "stateMutability": "nonpayable",
      "type": "function"
    },
    {
      "inputs": [
        {
          "internalType": "address",
          "name": "newOwner",
          "type": "address"
        }
      ],
      "name": "transferOwnership",
      "outputs": [],
      "stateMutability": "nonpayable",
      "type": "function"
    },
    {
      "inputs": [],
      "name": "withdraw",
      "outputs": [],
      "stateMutability": "nonpayable",
      "type": "function"
    },
    {
      "stateMutability": "payable",
      "type": "receive"
    }
  ],
  "bytecode": "0x60806040523480156200001157600080fd5b506040516200281d3803806200281d833981810160405281019062000037919062000269565b6040518060400160405280601081526020017f43727970746f2044657620546f6b656e000000000000000000000000000000008152506040518060400160405280600281526020017f43440000000000000000000000000000000000000000000000000000000000008152508160039081620000b4919062000515565b508060049081620000c6919062000515565b505050620000e9620000dd6200013160201b60201c565b6200013960201b60201c565b80600660006101000a81548173ffffffffffffffffffffffffffffffffffffffff021916908373ffffffffffffffffffffffffffffffffffffffff16021790555050620005fc565b600033905090565b6000600560009054906101000a900473ffffffffffffffffffffffffffffffffffffffff16905081600560006101000a81548173ffffffffffffffffffffffffffffffffffffffff021916908373ffffffffffffffffffffffffffffffffffffffff1602179055508173ffffffffffffffffffffffffffffffffffffffff168173ffffffffffffffffffffffffffffffffffffffff167f8be0079c531659141344cd1fd0a4f28419497f9722a3daafe3b4186f6b6457e060405160405180910390a35050565b600080fd5b600073ffffffffffffffffffffffffffffffffffffffff82169050919050565b6000620002318262000204565b9050919050565b620002438162000224565b81146200024f57600080fd5b50565b600081519050620002638162000238565b92915050565b600060208284031215620002825762000281620001ff565b5b6000620002928482850162000252565b91505092915050565b600081519050919050565b7f4e487b7100000000000000000000000000000000000000000000000000000000600052604160045260246000fd5b7f4e487b7100000000000000000000000000000000000000000000000000000000600052602260045260246000fd5b600060028204905060018216806200031d57607f821691505b602082108103620003335762000332620002d5565b5b50919050565b60008190508160005260206000209050919050565b60006020601f8301049050919050565b600082821b905092915050565b6000600883026200039d7fffffffffffffffffffffffffffffffffffffffffffffffffffffffffffffffff826200035e565b620003a986836200035e565b95508019841693508086168417925050509392505050565b6000819050919050565b6000819050919050565b6000620003f6620003f0620003ea84620003c1565b620003cb565b620003c1565b9050919050565b6000819050919050565b6200041283620003d5565b6200042a6200042182620003fd565b8484546200036b565b825550505050565b600090565b6200044162000432565b6200044e81848462000407565b505050565b5b8181101562000476576200046a60008262000437565b60018101905062000454565b5050565b601f821115620004c5576200048f8162000339565b6200049a846200034e565b81016020851015620004aa578190505b620004c2620004b9856200034e565b83018262000453565b50505b505050565b600082821c905092915050565b6000620004ea60001984600802620004ca565b1980831691505092915050565b6000620005058383620004d7565b9150826002028217905092915050565b62000520826200029b565b67ffffffffffffffff8111156200053c576200053b620002a6565b5b62000548825462000304565b620005558282856200047a565b600060209050601f8311600181146200058d576000841562000578578287015190505b620005848582620004f7565b865550620005f4565b601f1984166200059d8662000339565b60005b82811015620005c757848901518255600182019150602085019450602081019050620005a0565b86831015620005e75784890151620005e3601f891682620004d7565b8355505b6001600288020188555050505b505050505050565b612211806200060c6000396000f3fe60806040526004361061012e5760003560e01c80635f3690af116100ab57806395d89b411161006f57806395d89b41146103da578063a0712d6814610405578063a457c2d714610421578063a9059cbb1461045e578063dd62ed3e1461049b578063f2fde38b146104d857610135565b80635f3690af146102f357806370a0823114610330578063715018a61461036d5780637ff9b596146103845780638da5cb5b146103af57610135565b8063313ce567116100f2578063313ce56714610232578063395093511461025d5780633ccfd60b1461029a5780634e71d92d146102b15780635afcc2f5146102c857610135565b806306fdde0314610137578063095ea7b31461016257806318160ddd1461019f57806323b872dd146101ca5780632ab4d0521461020757610135565b3661013557005b005b34801561014357600080fd5b5061014c610501565b6040516101599190611564565b60405180910390f35b34801561016e57600080fd5b506101896004803603810190610184919061161f565b610593565b604051610196919061167a565b60405180910390f35b3480156101ab57600080fd5b506101b46105b6565b6040516101c191906116a4565b60405180910390f35b3480156101d657600080fd5b506101f160048036038101906101ec91906116bf565b6105c0565b6040516101fe919061167a565b60405180910390f35b34801561021357600080fd5b5061021c6105ef565b60405161022991906116a4565b60405180910390f35b34801561023e57600080fd5b506102476105fd565b604051610254919061172e565b60405180910390f35b34801561026957600080fd5b50610284600480360381019061027f919061161f565b610606565b604051610291919061167a565b60405180910390f35b3480156102a657600080fd5b506102af61063d565b005b3480156102bd57600080fd5b506102c6610707565b005b3480156102d457600080fd5b506102dd610978565b6040516102ea91906116a4565b60405180910390f35b3480156102ff57600080fd5b5061031a60048036038101906103159190611749565b610984565b604051610327919061167a565b60405180910390f35b34801561033c57600080fd5b5061035760048036038101906103529190611776565b6109a4565b60405161036491906116a4565b60405180910390f35b34801561037957600080fd5b506103826109ec565b005b34801561039057600080fd5b50610399610a00565b6040516103a691906116a4565b60405180910390f35b3480156103bb57600080fd5b506103c4610a0b565b6040516103d191906117b2565b60405180910390f35b3480156103e657600080fd5b506103ef610a35565b6040516103fc9190611564565b60405180910390f35b61041f600480360381019061041a9190611749565b610ac7565b005b34801561042d57600080fd5b506104486004803603810190610443919061161f565b610ba7565b604051610455919061167a565b60405180910390f35b34801561046a57600080fd5b506104856004803603810190610480919061161f565b610c1e565b604051610492919061167a565b60405180910390f35b3480156104a757600080fd5b506104c260048036038101906104bd91906117cd565b610c41565b6040516104cf91906116a4565b60405180910390f35b3480156104e457600080fd5b506104ff60048036038101906104fa9190611776565b610cc8565b005b6060600380546105109061183c565b80601f016020809104026020016040519081016040528092919081815260200182805461053c9061183c565b80156105895780601f1061055e57610100808354040283529160200191610589565b820191906000526020600020905b81548152906001019060200180831161056c57829003601f168201915b5050505050905090565b60008061059e610d4b565b90506105ab818585610d53565b600191505092915050565b6000600254905090565b6000806105cb610d4b565b90506105d8858285610f1c565b6105e3858585610fa8565b60019150509392505050565b69021e19e0c9bab240000081565b60006012905090565b600080610611610d4b565b90506106328185856106238589610c41565b61062d919061189c565b610d53565b600191505092915050565b610645611227565b600061064f610a0b565b9050600047905060008273ffffffffffffffffffffffffffffffffffffffff168260405161067c90611901565b60006040518083038185875af1925050503d80600081146106b9576040519150601f19603f3d011682016040523d82523d6000602084013e6106be565b606091505b5050905080610702576040517f08c379a00000000000000000000000000000000000000000000000000000000081526004016106f990611962565b60405180910390fd5b505050565b60003390506000600660009054906101000a900473ffffffffffffffffffffffffffffffffffffffff1673ffffffffffffffffffffffffffffffffffffffff166370a08231836040518263ffffffff1660e01b815260040161076991906117b2565b602060405180830381865afa158015610786573d6000803e3d6000fd5b505050506040513d601f19601f820116820180604052508101906107aa9190611997565b9050600081116107ef576040517f08c379a00000000000000000000000000000000000000000000000000000000081526004016107e690611a36565b60405180910390fd5b6000805b82811015610912576000600660009054906101000a900473ffffffffffffffffffffffffffffffffffffffff1673ffffffffffffffffffffffffffffffffffffffff16632f745c5986846040518363ffffffff1660e01b815260040161085a929190611a56565b602060405180830381865afa158015610877573d6000803e3d6000fd5b505050506040513d601f19601f8201168201806040525081019061089b9190611997565b90506007600082815260200190815260200160002060009054906101000a900460ff166108fe576001836108cf919061189c565b925060016007600083815260200190815260200160002060006101000a81548160ff0219169083151502179055505b50808061090a90611a7f565b9150506107f3565b5060008111610956576040517f08c379a000000000000000000000000000000000000000000000000000000000815260040161094d90611b39565b60405180910390fd5b61097333678ac7230489e800008361096e9190611b59565b6112a5565b505050565b678ac7230489e8000081565b60076020528060005260406000206000915054906101000a900460ff1681565b60008060008373ffffffffffffffffffffffffffffffffffffffff1673ffffffffffffffffffffffffffffffffffffffff168152602001908152602001600020549050919050565b6109f4611227565b6109fe6000611404565b565b66038d7ea4c6800081565b6000600560009054906101000a900473ffffffffffffffffffffffffffffffffffffffff16905090565b606060048054610a449061183c565b80601f0160208091040260200160405190810160405280929190818152602001828054610a709061183c565b8015610abd5780601f10610a9257610100808354040283529160200191610abd565b820191906000526020600020905b815481529060010190602001808311610aa057829003601f168201915b5050505050905090565b60008166038d7ea4c68000610adc9190611b59565b905080341015610b21576040517f08c379a0000000000000000000000000000000000000000000000000000000008152600401610b1890611be7565b60405180910390fd5b6000670de0b6b3a764000083610b379190611b59565b905069021e19e0c9bab240000081610b4d6105b6565b610b57919061189c565b1115610b98576040517f08c379a0000000000000000000000000000000000000000000000000000000008152600401610b8f90611c79565b60405180910390fd5b610ba233826112a5565b505050565b600080610bb2610d4b565b90506000610bc08286610c41565b905083811015610c05576040517f08c379a0000000000000000000000000000000000000000000000000000000008152600401610bfc90611d0b565b60405180910390fd5b610c128286868403610d53565b60019250505092915050565b600080610c29610d4b565b9050610c36818585610fa8565b600191505092915050565b6000600160008473ffffffffffffffffffffffffffffffffffffffff1673ffffffffffffffffffffffffffffffffffffffff16815260200190815260200160002060008373ffffffffffffffffffffffffffffffffffffffff1673ffffffffffffffffffffffffffffffffffffffff16815260200190815260200160002054905092915050565b610cd0611227565b600073ffffffffffffffffffffffffffffffffffffffff168173ffffffffffffffffffffffffffffffffffffffff1603610d3f576040517f08c379a0000000000000000000000000000000000000000000000000000000008152600401610d3690611d9d565b60405180910390fd5b610d4881611404565b50565b600033905090565b600073ffffffffffffffffffffffffffffffffffffffff168373ffffffffffffffffffffffffffffffffffffffff1603610dc2576040517f08c379a0000000000000000000000000000000000000000000000000000000008152600401610db990611e2f565b60405180910390fd5b600073ffffffffffffffffffffffffffffffffffffffff168273ffffffffffffffffffffffffffffffffffffffff1603610e31576040517f08c379a0000000000000000000000000000000000000000000000000000000008152600401610e2890611ec1565b60405180910390fd5b80600160008573ffffffffffffffffffffffffffffffffffffffff1673ffffffffffffffffffffffffffffffffffffffff16815260200190815260200160002060008473ffffffffffffffffffffffffffffffffffffffff1673ffffffffffffffffffffffffffffffffffffffff168152602001908152602001600020819055508173ffffffffffffffffffffffffffffffffffffffff168373ffffffffffffffffffffffffffffffffffffffff167f8c5be1e5ebec7d5bd14f71427d1e84f3dd0314c0f7b2291e5b200ac8c7c3b92583604051610f0f91906116a4565b60405180910390a3505050565b6000610f288484610c41565b90507fffffffffffffffffffffffffffffffffffffffffffffffffffffffffffffffff8114610fa25781811015610f94576040517f08c379a0000000000000000000000000000000000000000000000000000000008152600401610f8b90611f2d565b60405180910390fd5b610fa18484848403610d53565b5b50505050565b600073ffffffffffffffffffffffffffffffffffffffff168373ffffffffffffffffffffffffffffffffffffffff1603611017576040517f08c379a000000000000000000000000000000000000000000000000000000000815260040161100e90611fbf565b60405180910390fd5b600073ffffffffffffffffffffffffffffffffffffffff168273ffffffffffffffffffffffffffffffffffffffff1603611086576040517f08c379a000000000000000000000000000000000000000000000000000000000815260040161107d90612051565b60405180910390fd5b6110918383836114ca565b60008060008573ffffffffffffffffffffffffffffffffffffffff1673ffffffffffffffffffffffffffffffffffffffff16815260200190815260200160002054905081811015611117576040517f08c379a000000000000000000000000000000000000000000000000000000000815260040161110e906120e3565b60405180910390fd5b8181036000808673ffffffffffffffffffffffffffffffffffffffff1673ffffffffffffffffffffffffffffffffffffffff16815260200190815260200160002081905550816000808573ffffffffffffffffffffffffffffffffffffffff1673ffffffffffffffffffffffffffffffffffffffff16815260200190815260200160002060008282546111aa919061189c565b925050819055508273ffffffffffffffffffffffffffffffffffffffff168473ffffffffffffffffffffffffffffffffffffffff167fddf252ad1be2c89b69c2b068fc378daa952ba7f163c4a11628f55a4df523b3ef8460405161120e91906116a4565b60405180910390a36112218484846114cf565b50505050565b61122f610d4b565b73ffffffffffffffffffffffffffffffffffffffff1661124d610a0b565b73ffffffffffffffffffffffffffffffffffffffff16146112a3576040517f08c379a000000000000000000000000000000000000000000000000000000000815260040161129a9061214f565b60405180910390fd5b565b600073ffffffffffffffffffffffffffffffffffffffff168273ffffffffffffffffffffffffffffffffffffffff1603611314576040517f08c379a000000000000000000000000000000000000000000000000000000000815260040161130b906121bb565b60405180910390fd5b611320600083836114ca565b8060026000828254611332919061189c565b92505081905550806000808473ffffffffffffffffffffffffffffffffffffffff1673ffffffffffffffffffffffffffffffffffffffff1681526020019081526020016000206000828254611387919061189c565b925050819055508173ffffffffffffffffffffffffffffffffffffffff16600073ffffffffffffffffffffffffffffffffffffffff167fddf252ad1be2c89b69c2b068fc378daa952ba7f163c4a11628f55a4df523b3ef836040516113ec91906116a4565b60405180910390a3611400600083836114cf565b5050565b6000600560009054906101000a900473ffffffffffffffffffffffffffffffffffffffff16905081600560006101000a81548173ffffffffffffffffffffffffffffffffffffffff021916908373ffffffffffffffffffffffffffffffffffffffff1602179055508173ffffffffffffffffffffffffffffffffffffffff168173ffffffffffffffffffffffffffffffffffffffff167f8be0079c531659141344cd1fd0a4f28419497f9722a3daafe3b4186f6b6457e060405160405180910390a35050565b505050565b505050565b600081519050919050565b600082825260208201905092915050565b60005b8381101561150e5780820151818401526020810190506114f3565b60008484015250505050565b6000601f19601f8301169050919050565b6000611536826114d4565b61154081856114df565b93506115508185602086016114f0565b6115598161151a565b840191505092915050565b6000602082019050818103600083015261157e818461152b565b905092915050565b600080fd5b600073ffffffffffffffffffffffffffffffffffffffff82169050919050565b60006115b68261158b565b9050919050565b6115c6816115ab565b81146115d157600080fd5b50565b6000813590506115e3816115bd565b92915050565b6000819050919050565b6115fc816115e9565b811461160757600080fd5b50565b600081359050611619816115f3565b92915050565b6000806040838503121561163657611635611586565b5b6000611644858286016115d4565b92505060206116558582860161160a565b9150509250929050565b60008115159050919050565b6116748161165f565b82525050565b600060208201905061168f600083018461166b565b92915050565b61169e816115e9565b82525050565b60006020820190506116b96000830184611695565b92915050565b6000806000606084860312156116d8576116d7611586565b5b60006116e6868287016115d4565b93505060206116f7868287016115d4565b92505060406117088682870161160a565b9150509250925092565b600060ff82169050919050565b61172881611712565b82525050565b6000602082019050611743600083018461171f565b92915050565b60006020828403121561175f5761175e611586565b5b600061176d8482850161160a565b91505092915050565b60006020828403121561178c5761178b611586565b5b600061179a848285016115d4565b91505092915050565b6117ac816115ab565b82525050565b60006020820190506117c760008301846117a3565b92915050565b600080604083850312156117e4576117e3611586565b5b60006117f2858286016115d4565b9250506020611803858286016115d4565b9150509250929050565b7f4e487b7100000000000000000000000000000000000000000000000000000000600052602260045260246000fd5b6000600282049050600182168061185457607f821691505b6020821081036118675761186661180d565b5b50919050565b7f4e487b7100000000000000000000000000000000000000000000000000000000600052601160045260246000fd5b60006118a7826115e9565b91506118b2836115e9565b92508282019050808211156118ca576118c961186d565b5b92915050565b600081905092915050565b50565b60006118eb6000836118d0565b91506118f6826118db565b600082019050919050565b600061190c826118de565b9150819050919050565b7f4661696c656420746f2073656e64204574686572000000000000000000000000600082015250565b600061194c6014836114df565b915061195782611916565b602082019050919050565b6000602082019050818103600083015261197b8161193f565b9050919050565b600081519050611991816115f3565b92915050565b6000602082840312156119ad576119ac611586565b5b60006119bb84828501611982565b91505092915050565b7f596f7520646f6e74206f776e20616e792043727970746f20446576204e46542760008201527f7300000000000000000000000000000000000000000000000000000000000000602082015250565b6000611a206021836114df565b9150611a2b826119c4565b604082019050919050565b60006020820190508181036000830152611a4f81611a13565b9050919050565b6000604082019050611a6b60008301856117a3565b611a786020830184611695565b9392505050565b6000611a8a826115e9565b91507fffffffffffffffffffffffffffffffffffffffffffffffffffffffffffffffff8203611abc57611abb61186d565b5b600182019050919050565b7f596f75206861766520616c726561647920636c61696d656420616c6c2074686560008201527f20746f6b656e7300000000000000000000000000000000000000000000000000602082015250565b6000611b236027836114df565b9150611b2e82611ac7565b604082019050919050565b60006020820190508181036000830152611b5281611b16565b9050919050565b6000611b64826115e9565b9150611b6f836115e9565b9250828202611b7d816115e9565b91508282048414831517611b9457611b9361186d565b5b5092915050565b7f45746865722073656e7420697320696e636f7272656374000000000000000000600082015250565b6000611bd16017836114df565b9150611bdc82611b9b565b602082019050919050565b60006020820190508181036000830152611c0081611bc4565b9050919050565b7f4578636565647320746865206d617820746f74616c20737570706c792061766160008201527f696c61626c652e00000000000000000000000000000000000000000000000000602082015250565b6000611c636027836114df565b9150611c6e82611c07565b604082019050919050565b60006020820190508181036000830152611c9281611c56565b9050919050565b7f45524332303a2064656372656173656420616c6c6f77616e63652062656c6f7760008201527f207a65726f000000000000000000000000000000000000000000000000000000602082015250565b6000611cf56025836114df565b9150611d0082611c99565b604082019050919050565b60006020820190508181036000830152611d2481611ce8565b9050919050565b7f4f776e61626c653a206e6577206f776e657220697320746865207a65726f206160008201527f6464726573730000000000000000000000000000000000000000000000000000602082015250565b6000611d876026836114df565b9150611d9282611d2b565b604082019050919050565b60006020820190508181036000830152611db681611d7a565b9050919050565b7f45524332303a20617070726f76652066726f6d20746865207a65726f2061646460008201527f7265737300000000000000000000000000000000000000000000000000000000602082015250565b6000611e196024836114df565b9150611e2482611dbd565b604082019050919050565b60006020820190508181036000830152611e4881611e0c565b9050919050565b7f45524332303a20617070726f766520746f20746865207a65726f20616464726560008201527f7373000000000000000000000000000000000000000000000000000000000000602082015250565b6000611eab6022836114df565b9150611eb682611e4f565b604082019050919050565b60006020820190508181036000830152611eda81611e9e565b9050919050565b7f45524332303a20696e73756666696369656e7420616c6c6f77616e6365000000600082015250565b6000611f17601d836114df565b9150611f2282611ee1565b602082019050919050565b60006020820190508181036000830152611f4681611f0a565b9050919050565b7f45524332303a207472616e736665722066726f6d20746865207a65726f20616460008201527f6472657373000000000000000000000000000000000000000000000000000000602082015250565b6000611fa96025836114df565b9150611fb482611f4d565b604082019050919050565b60006020820190508181036000830152611fd881611f9c565b9050919050565b7f45524332303a207472616e7366657220746f20746865207a65726f206164647260008201527f6573730000000000000000000000000000000000000000000000000000000000602082015250565b600061203b6023836114df565b915061204682611fdf565b604082019050919050565b6000602082019050818103600083015261206a8161202e565b9050919050565b7f45524332303a207472616e7366657220616d6f756e742065786365656473206260008201527f616c616e63650000000000000000000000000000000000000000000000000000602082015250565b60006120cd6026836114df565b91506120d882612071565b604082019050919050565b600060208201905081810360008301526120fc816120c0565b9050919050565b7f4f776e61626c653a2063616c6c6572206973206e6f7420746865206f776e6572600082015250565b60006121396020836114df565b915061214482612103565b602082019050919050565b600060208201905081810360008301526121688161212c565b9050919050565b7f45524332303a206d696e7420746f20746865207a65726f206164647265737300600082015250565b60006121a5601f836114df565b91506121b08261216f565b602082019050919050565b600060208201905081810360008301526121d481612198565b905091905056fea2646970667358221220f45f0a5c2bc7ef2d7c8f6750a08b50b61448b6cc8e5d878bffdbd7f026ffa83f64736f6c63430008110033",
  "linkReferences": {},
  "deployedLinkReferences": {}
}